:020000040000FA
:100000003B20860187010508A80048202508AA0092
:10001000A60E2608AA042A08860027088700992029
:10002000FF30280203191A20A80A2808081C0528EE
:1000300083200328870186010830AB000314870C56
:100040009920AB0B1E280830AB000314860C9920B6
:10005000AB0B25280830AB000310860D9920AB0BA5
:100060002C280430AB000310870D9920AB0B3328EC
:100070000030A000080083160317880189010313CC
:1000800086018701FF308500013088008312080057
:10009000A900A501A601A701003A031908006430D0
:1000A000A70AA90203185028A703A9070A30A60A1D
:1000B000A90203185728A603A9072908A5000800C4
:1000C0000000000000000000000000000800000028
:1000D000A43073280000403073281F3073280000BC
:1000E0000E3073280530AC00AC0B74280800C83003
:1000F00086286430862832308628143086280A30D4
:10010000862805308628023086280130AD00F93077
:10011000AC000000AC0B8928AD0B87280800C83064
:100120009A2864309A2832309A2814309A280A3053
:100130009A280530AE006430AD00F930AC00000004
:10014000AC0B9F28AD0B9D28AE0B9B2808000130FF
:10015000B5001430B600FF30B700B70BAD28B60BB2
:10016000AB28B50BA92808000130B2001930B30044
:10017000FF30B400B40BBA28B30BB828B20BB628C2
:1001800008000A30B1006430B0006430AF00AF0B3B
:0C019000C728B00BC528B10BC32808001D
:04019C0000340034F7
:02400E00F42399
:02401000FF3E71
:00000001FF
