:020000040000FA
:1000000047204C2086018701A8010508A800592037
:100010002508AA00A60E2608AA042A088600270892
:1000200087007120FF30280203191C20A80A280825
:10003000081C07288B200428870186010830AB00A4
:10004000081845280314870C7120AB0B20280830B2
:10005000AB00081845280314860C7120AB0B292827
:100060000830AB00081845280310860D7120AB0B33
:1000700032280430AB00081845280310870D712082
:10008000AB0B3B280030A00008008B20042883160F
:100090000313F1308F0008008316031788018901CC
:1000A000031386018701FF30850001308800831229
:1000B0000800A900A501A601A701003A031908003C
:1000C0006430A70AA90203186128A703A9070A3008
:1000D000A60AA90203186828A603A9072908A500EB
:1000E0000800FF30AC00B430AD000630AE00AE0BFF
:1000F0007728AD0B7528AC0B73280800FF30AC00D7
:10010000FF30AD000930AE00AE0B8428AD0B822865
:10011000AC0B802808006430AC006430AD000F30B8
:10012000AE00AE0B9128AD0B8F28AC0B8D280800CC
:040130000034003463
:02400E00F5209B
:02401000FF3F70
:00000001FF
