:020000040000FA
:100000003E20860187010508A8004B202508AA008C
:10001000A60E2608AA042A088600270887009C2026
:10002000FF30280203191A20A80A2808081C0528EE
:1000300086200328870186010830AB000314870C53
:100040009C20AB0B1E280830AB0026280314860C1E
:100050009C20AB0B26280830AB002E280310860D01
:100060009C20AB0B2E280430AB0036280310870DE4
:100070009C20AB0B36280030A00008008316031725
:1000800088018901031386018701FF308500013053
:10009000880083120800A900A501A601A701003A63
:1000A000031908006430A70AA90203185328A703FC
:1000B000A9070A30A60AA90203185A28A603A90705
:1000C0002908A50008000000000000000000000052
:1000D000000008000000A430762800004030762898
:1000E0001F30762800000E3076280530AC00AC0BAF
:1000F00077280800C8308928643089283230892858
:10010000143089280A308928053089280230892846
:100110000130AD00F930AC000000AC0B8C28AD0B09
:100120008A280800C8309D2864309D2832309D28D8
:1001300014309D280A309D280530AE006430AD0093
:10014000F930AC000000AC0BA228AD0BA028AE0B20
:100150009E2808000130B5001430B600FF30B7000B
:10016000B70BB028B60BAE28B50BAC280800013091
:10017000B2001930B300FF30B400B40BBD28B30B8C
:10018000BB28B20BB92808000A30B1006430B000B7
:100190006430AF00AF0BCA28B00BC828B10BC6281B
:0201A000080055
:0401A20000340034F1
:02400E00F42399
:02401000FF3E71
:00000001FF
