:020000040000FA
:100000004120860187010508A8004E202508AA0086
:10001000A60E2608AA042A088600270887009F2023
:10002000FF30280203191A20A80A2808081C0528EE
:100030008920032820308700860087018601083048
:10004000AB000314870C9F20AB0B21280830AB00BA
:1000500029280314860C9F20AB0B29280830AB00FD
:1000600031280310860D9F20AB0B31280430AB00E4
:1000700039280310870D9F20AB0B39280030A000D2
:10008000080083160317880189010313860187017D
:10009000FF3085000130880083120800A900A50107
:1000A000A601A701003A031908006430A70AA902B3
:1000B00003185628A703A9070A30A60AA90203189D
:1000C0005D28A603A9072908A50008000000000074
:1000D000000000000000000008000000A4307928A3
:1000E0000000403079281F30792800000E30792830
:1000F0000530AC00AC0B7A280800C8308C2864307E
:100100008C2832308C2814308C280A308C2805300A
:100110008C2802308C280130AD00F930AC00000092
:10012000AC0B8F28AD0B8D280800C830A028643098
:10013000A0283230A0281430A0280A30A02805308A
:10014000AE006430AD00F930AC000000AC0BA52867
:10015000AD0BA328AE0BA12808000130B500143068
:10016000B600FF30B700B70BB328B60BB128B50BFC
:10017000AF2808000130B2001930B300FF30B400DE
:10018000B40BC028B30BBE28B20BBC2808000A3041
:10019000B1006430B0006430AF00AF0BCD28B00BBD
:0801A000CB28B10BC9280800AF
:0401A80000340034EB
:02400E00F42399
:02401000FF3E71
:00000001FF
